{
  "abi": [
    {
      "inputs": [],
      "stateMutability": "nonpayable",
      "type": "constructor"
    },
    {
      "inputs": [
        {
          "internalType": "address",
          "name": "_addressToWhitelist",
          "type": "address"
        }
      ],
      "name": "addUser",
      "outputs": [],
      "stateMutability": "nonpayable",
      "type": "function"
    },
    {
      "inputs": [
        {
          "internalType": "address",
          "name": "_whitelistedAddress",
          "type": "address"
        }
      ],
      "name": "verifyUser",
      "outputs": [
        {
          "internalType": "bool",
          "name": "",
          "type": "bool"
        }
      ],
      "stateMutability": "view",
      "type": "function"
    }
  ],
  "bytecode": {
    "object": "0x608060405234801561001057600080fd5b50600080546001600160a01b0319163390811782558152600160208190526040909120805460ff1916909117905561017b8061004d6000396000f3fe608060405234801561001057600080fd5b50600436106100365760003560e01c8063421b2d8b1461003b5780634d81312014610050575b600080fd5b61004e610049366004610115565b610090565b005b61007c61005e366004610115565b6001600160a01b031660009081526001602052604090205460ff1690565b604051901515815260200160405180910390f35b6000546001600160a01b031633146100ee5760405162461bcd60e51b815260206004820181905260248201527f4f776e61626c653a2063616c6c6572206973206e6f7420746865206f776e6572604482015260640160405180910390fd5b6001600160a01b03166000908152600160208190526040909120805460ff19169091179055565b60006020828403121561012757600080fd5b81356001600160a01b038116811461013e57600080fd5b939250505056fea2646970667358221220d6a8715681f1ad689a3a9e7e0ee2aeb8bcdc3ca3af2a01186b48d57321bd41dd64736f6c634300080d0033",
    "linkReferences": {}
  },
  "methodIdentifiers": {
    "addUser(address)": "421b2d8b",
    "verifyUser(address)": "4d813120"
  },
  "id": 15
}